:100000000C9434000C9451000C9451000C94510049
:100010000C9451000C9451000C9451000C9451001C
:100020000C9451000C9451000C9451000C94340128
:100030000C9451000C9451000C944B010C94510001
:100040000C9451000C9451000C9451000C945100EC
:100050000C9451000C9451000C9451000C945100DC
:100060000C9451000C94510011241FBECFEFD8E026
:10007000DEBFCDBF11E0A0E0B1E0E4EEF4E302C0EA
:1000800005900D92A630B107D9F721E0A6E0B1E0C6
:1000900001C01D92AB32B207E1F70E9473190C94B4
:1000A000701A0C94000010928000E1E8F0E080816A
:1000B00088608083AFE6B0E08C9182608C9389E0A9
:1000C0009DE3909389008093880080818560808380
:1000D000089582E084BDEEE6F0E080818260808356
:1000E0008EE187BD85B5836085BD089584B18E623C
:1000F00084B985B1837D85B9299A549A5C9808950D
:1001000080E58CBD2A9808958EBD0DB407FEFDCF05
:1001100008959F92AF92BF92CF92DF92EF92FF929B
:100120000F931F93CF93DF9388230CF480E0662313
:100130000CF460E064300CF063E044230CF440E025
:10014000D22E22230CF4D12C2FE02D1524F40F2EC7
:10015000FFE0DF2EF02DE62E66230CF4E394E59409
:10016000FF24E7FCF09484300CF083E0880F990BB7
:100170008E0D9F1D44300CF043E0E4E06E02B001B0
:100180001124640F711D47FD7A95EE0CFF1CEE0CD7
:10019000FF1CEE0CFF1C6E197F0921E030E0062EDB
:1001A00002C0220F331F0A94E2F7722F70950F2EB0
:1001B000F2E2EF2EF1E0FF2EF02DE80EF91EF7012E
:1001C000A080A7229C01265F3E4FF901B080B72294
:1001D000AC014E5E5E4FFA01C080C722865E9E4F24
:1001E000FC01908079210D2D017010E0062E02C0D7
:1001F000000F111F0A94E2F7072B0083D1FAFF27A3
:10020000F0F9CF2F80E0D82F062E02C0CC0FDD1FD3
:100210000A94E2F7CA29F701C083D2FAAA27A0F903
:10022000B0E0062E02C0AA0FBB1F0A94E2F7AB296A
:10023000F901A083D3FAEE27E0F9F0E0CF0102C084
:10024000880F991F6A95E2F7BC016C29FA01608357
:10025000DF91CF911F910F91FF90EF90DF90CF90A2
:10026000BF90AF909F9008951F920F920FB60F927C
:1002700011248F939F939BB180E189278BB9809143
:100280002A018F5F80932A019F918F910F900FBE5B
:100290000F901F9018951F920F920FB60F92112476
:1002A0002F933F934F935F936F937F938F939F937E
:1002B000AF93BF93EF93FF93299A80910601883003
:1002C00031F4909108019F5F909308010FC088312D
:1002D00031F4909108019F5F9093080107C0883323
:1002E00029F4909108019F5F909308018F5F80939C
:1002F000060180910801813049F138F0823009F41B
:1003000046C0833009F08AC062C0809107018093A3
:10031000090190E09C012E5F3F4F821793070CF07C
:100320007DC0FC01E65EFE4F80810E9484008091CA
:1003300009018F5F8093090190E02091070130E06F
:100340002E5F3F4F8217930764F368C080910701C7
:100350008093090190E09C012E5F3F4F8217930725
:100360000CF05CC0FC01EE5DFE4F80810E948400B9
:10037000809109018F5F8093090190E0209107012E
:1003800030E02E5F3F4F8217930764F347C08091A0
:1003900007018093090190E09C012E5F3F4F821777
:1003A0009307E4F5FC01E65FFE4F80810E94840024
:1003B000809109018F5F8093090190E020910701EE
:1003C00030E02E5F3F4F8217930764F327C0809180
:1003D00007018093090190E09C012E5F3F4F821737
:1003E0009307A4F4FC01EE5EFE4F80810E9484001E
:1003F000809109018F5F8093090190E020910701AE
:1004000030E02E5F3F4F8217930764F3809106011F
:10041000883721F41092060110920801809104019E
:100420000E9484002A9A2A98299880910401880FB2
:1004300080930401809107018E5F883019F08093CA
:10044000070105C01092070182E080930401FF912B
:10045000EF91BF91AF919F918F917F916F915F913C
:100460004F913F912F910F900FBE0F901F901895B5
:10047000CF93DF93C82FD62F0E94031A6D2F7727B3
:1004800067FD70950E948A198C0FDF91CF910895B6
:100490002F923F924F925F926F927F928F929F9294
:1004A000AF92BF92CF92DF92EF92FF920F931F9382
:1004B000CF93DF93CDB7DEB728970FB6F894DEBFA2
:1004C0000FBECDBF64E080E00E943802E82E64E0F9
:1004D00080E00E9438028F8364E080E00E9438024E
:1004E000888764E080E00E943802F82E64E080E0B3
:1004F0000E943802182F64E080E00E943802082F22
:10050000A12C912CB92C13C02B2D4D2D6C2D8A2D87
:100510000E948900D39424E0D212F6CFC394C2166D
:1005200011F0DB2CF1CFA39484E0A81611F0C92CB4
:10053000F8CF60E186E00E943802682E65E081E035
:100540000E943802782E10922A01812C912CA12C25
:1005500091E09E83E1E0ED83F1E0FA83B12CC12CC0
:10056000D12C21E02C8381E08B83998322242A944F
:1005700060C120E04B2D6C2D8D2D0E9489004B2DEC
:100580004F5F20E06C2D8D2D0E9489004B2D415036
:1005900020E06C2D8D2D0E94890020E04B2D6C2DCC
:1005A0008D2D8F5F0E94890020E04B2D6C2D8D2DAD
:1005B00081500E9489006C2D6F5F20E04B2D8D2DA6
:1005C0000E9489006C2D615020E04B2D8D2D0E94E2
:1005D000890020E0482D692D8A2D0E948900482D30
:1005E0004F5F20E0692D8A2D0E948900482D4150DF
:1005F00020E0692D8A2D0E94890020E0482D692D78
:100600008A2D8F5F0E94890020E0482D692D8A2D58
:1006100081500E948900692D6F5F20E0482D8A2D4E
:100620000E948900692D615020E0482D8A2D0E948A
:100630008900262D402F612F8F2D0E948900C02E0A
:10064000402F4F5F262D612F8F2D0E948900402F54
:100650004150262D612F8F2D0E948900DF2C262DE1
:10066000402F612F8F2D8F5F0E948900262D402FF4
:10067000612F8F2D81500E948900B12E612F6F5FF5
:10068000262D402F8F2D0E948900612F6150262D2D
:10069000402F8F2D0E948900272D48856F818E2D38
:1006A0000E9489003884432D4F5F272D6F818E2D46
:1006B0000E94890048854150272D6F818E2D0E9410
:1006C0008900272D48856F818E2D8F5F0E948900BC
:1006D000272D48856F818E2D81500E9489004F8083
:1006E000642D6F5F272D48858E2D0E9489006F81B4
:1006F0006150272D48858E2D0E948900EFE7F9EA89
:1007000023E0E150F0402040E1F700C0000063E04A
:1007100080E00E943802811105C059805E0C4F8034
:10072000388411C0813029F48B81480E5E2C3884C6
:100730000AC0823029F49C81390E4F805E2C03C0A0
:100740004F805E2C3884552024F0E3E0E5152CF032
:1007500009C0F1E0F983512C05C029820F2EF3E086
:100760005F2EF02D442024F023E024152CF009C046
:1007700081E08B83412C05C02B820F2EF3E04F2E9E
:10078000F02D332024F093E093152CF009C0E1E024
:10079000EC83312C05C02C820F2EF3E03F2EF02D80
:1007A00063E080E00E943802811105C08A818D0DCE
:1007B000912F202F11C0813029F49D819B0D8F2D09
:1007C000202F0AC0823029F42E812C0D912F8F2DDD
:1007D00003C0912F8F2D202F88231CF084302CF400
:1007E00006C0F1E0FA8380E002C02A8283E0992308
:1007F0001CF094302CF406C091E09D8390E002C080
:100800002D8293E022231CF024302CF406C0E1E07A
:10081000EE8320E002C02E8223E0DE2CCF80B8845D
:10082000AF2C912E802E022F192FF82E38864F8252
:10083000E52C80912A018A3008F49BCE00E0F12C4F
:100840001F2D12C0212F4E2D6D2D802F0E9489004B
:10085000E394F4E0EF12F6CFD394DF1611F0E12E1B
:10086000F1CF0F5F043011F0DF2CF9CF28960FB6CF
:10087000F894DEBF0FBECDBFDF91CF911F910F91D6
:10088000FF90EF90DF90CF90BF90AF909F908F90B0
:100890007F906F905F904F903F902F9008952F9290
:1008A0003F924F925F926F927F928F929F92AF9200
:1008B000BF92CF92DF92EF92FF920F931F93CF934D
:1008C000DF93CDB7DEB7CA57D1090FB6F894DEBFB4
:1008D0000FBECDBF66246394712C6C0E7D1E4E013D
:1008E00021E1820E911C2E0181E2480E511C54011F
:1008F00062017401830164E080E00E943802D80143
:100900008D938D0164E080E00E943802F7018193AD
:100910007F0164E080E00E943802D6018D936D0172
:100920000A151B0541F710922A01FE01EF5BFF4FEC
:10093000A396FFAFEEAFA397CE01C196A5969FAF4A
:100940008EAFA597DE01AF5ABF4FA796BFAFAEAF30
:10095000A797AC966FAEAC97AD967FAEAD97AE96BF
:100960008FAEAE97AF969FAEAF97E0964FAEE09743
:10097000E1965FAEE197E696AFAFE697E796BFAF39
:10098000E797E8968FAFE897E9969FAFE997EA96E1
:10099000EFAFEA97EB96FFAFEB97CEC0F601419130
:1009A0006F01D5016D915D0120E0F30181913F015F
:1009B0000E948900D4013D904D01B2E0B31544F48A
:1009C0002FE0F8014081D7016C91832D0E948900AE
:1009D000B2E03B1209C02AE0F8014081D7016C91D6
:1009E00082E00E94890016C0B1E03B1209C025E0F8
:1009F000F8014081D7016C9181E00E9489000AC012
:100A0000131444F021E0F8014081D7016C9180E09B
:100A10000E9489002A940F5F1F4FBFEFEB1AFB0A59
:100A20002110BCCFE3966EAC7FACE397E5968EAC1D
:100A30009FACE597E0968FADE097E1969FADE1978B
:100A4000AE96AFADAE97AF96BFADAF97AC96EFADEC
:100A5000AC97AD96FFADAD9720E0AD01BF01F301BE
:100A6000DB013D91BD013193DA013D91AD01D4012E
:100A70003D934D01DC013D91CD01D2013D932D010E
:100A80002F5F203169F7BFEFE7EEF3E0B150E040B0
:100A9000F040E1F700C00000AC96EFACAC97AD962B
:100AA000FFACAD97AE960FADAE97AF961FADAF97BB
:100AB000E096CFACE097E196DFACE197D601BC9031
:100AC000BA94BC9264E080E00E9438022B2D332758
:100AD00027FD3095992787FD9095059728173907A9
:100AE000BCF420E0F8014081D7016C9180E00E94C5
:100AF000890064E080E00E943802F701808364E0AE
:100B000080E00E943802D8018C9323E0F601208314
:100B10008FEFC81AD80A0F5F1F4F9FEFE91AF90A23
:100B2000A596AEADBFADA597CA16DB0639F6809186
:100B30002A018F3008F059C00F2EF1E48F2E912C2E
:100B4000F02D8C0E9D1E0F2EF1E36F2E712CF02DCB
:100B50006C0E7D1E0F2EF1E54F2E512CF02D4C0EFC
:100B60005D1EAC96EFACAC97AD96FFACAD97AE9674
:100B70000FADAE97AF961FADAF97E096BFADE097C4
:100B8000AA96BFAFAA97E196EFADE197AB96EFAF0C
:100B9000AB97E696FFADE697A896FFAFA897E796C6
:100BA0002FADE797A9962FAFA997E896AFACE89736
:100BB000E996BFACE997EA96CFACEA97EB96DFAC43
:100BC000EB976894222424F8E3967FAE6EAEE39709
:100BD000E5969FAE8EAEE597A9966EAC7FACA997D1
:100BE000AB968EAC9FACAB97D9CEC658DF4F0FB645
:100BF000F894DEBF0FBECDBFDF91CF911F910F9153
:100C0000FF90EF90DF90CF90BF90AF909F908F902C
:100C10007F906F905F904F903F902F9008952F920C
:100C20003F924F925F926F927F928F929F92AF927C
:100C3000BF92CF92DF92EF92FF920F931F93CF93C9
:100C4000DF93CDB7DEB7CD54D1090FB6F894DEBF30
:100C50000FBECDBF8DEF898B8EEF8A8B8FEF8B8B85
:100C60001C8A19AA19821AAA1A821BAA1B821CAAF8
:100C70001C8210922A0124961FAE249728961FAE3C
:100C800028972A961FAE2A9729961FAE299727964E
:100C90001FAE279721E025962FAF259726961FAEEA
:100CA00026970F2EFFE07F2EF02D22242394312C47
:100CB0002C0E3D1E2B962FAE2B972C963FAE2C97CD
:100CC000CE01419623969FAF8EAF23972D968FAF7F
:100CD0002D972E969FAF2E970C94D61225969FADEA
:100CE0002597913009F041C12496AFAD2497AA23EE
:100CF00039F14DC0F6018081652D681BD7018C91BB
:100D000020E0462DB42DB81B8B2F0E948900F801DE
:100D10008081652D681BD5018C91272D462DB42D22
:100D2000B81B8B2F0E9489006394E4E06E12E2CF1F
:100D3000FFEF8F1A9F0A24E08216910439F4C8C08D
:100D4000812C912C0F2EF3E04F2EF02D612C582C7E
:100D50000F2EF1E3CF2ED12CF02DCC0EDD1EC80CC2
:100D6000D91C0F2EF1E2EF2EF12CF02DEC0EFD1E12
:100D7000E80CF91C8101080D191D0F2EF1E1AF2EB1
:100D8000B12CF02DAC0EBD1EA80CB91CB3CF24960F
:100D90006FAD2497623009F04EC026C0D6018C9109
:100DA000452D481BF701808120E0662DF42DF81BAE
:100DB0008F2F0E948900D8018C91452D481BF50189
:100DC0008081272D662DF42DF81B8F2F0E9489001E
:100DD000639424E06212E2CF6FEF861A960A84E0F1
:100DE0008816910439F4C1C0812C912C0F2EF3E0A8
:100DF0004F2EF02D612C582C0F2EF1E3CF2ED12C3D
:100E0000F02DCC0EDD1EC80CD91C0F2EF1E2EF2EFA
:100E1000F12CF02DEC0EFD1EE80CF91C8101080DE3
:100E2000191D0F2EF1E1AF2EB12CF02DAC0EBD1E11
:100E3000A80CB91CB3CF24969FAD2497933009F02A
:100E400047C08E010C5D1F4F4E01A4E18A0E911C1C
:100E5000E12CF12C0F2EF3E04F2EF02D2AC0F601DD
:100E60004081450DD8018C9120E0662DB42DB81B32
:100E70008B2F0E948900F5014081450DD4018C9192
:100E8000272D662DB42DB81B8B2F0E9489006394EB
:100E9000E4E06E12E4CFFFEFEF1AFF0A01501109F0
:100EA00021E0821A910864E0E616F10411F40C9432
:100EB0000613612C5E2C0F2EF1E3CF2ED12CF02DDA
:100EC000CC0EDD1ECE0CDF1C5101AE0CBF1CC7CFFB
:100ED00024968FAD2497813009F047C08E010C5DB8
:100EE0001F4F4E0194E1890E911CE12CF12C0F2E25
:100EF000F3E04F2EF02D2AC0D6016C91650DF8015C
:100F0000808120E0462DF42DF81B8F2F0E94890050
:100F1000D5016C91650DF4018081272D462DF42DAE
:100F2000F81B8F2F0E948900639424E06212E4CFA3
:100F30006FEFE61AF60A0150110981E0881A91084C
:100F400094E0E916F10411F40C94DD12612C5E2C8E
:100F50000F2EF1E3CF2ED12CF02DCC0EDD1ECE0CBA
:100F6000DF1C5101AE0CBF1CC7CF2796AFAD279732
:100F7000A13009F037C12496BFAD2497B43009F0F1
:100F800044C00F2EF4E2AF2EB12CF02DAC0EBD1EDE
:100F90006E01E4E3CE0ED11C7E01F4E1EF0EF11CF4
:100FA0008E010C5F1F4F812C512C0F2EF3E06F2E02
:100FB000F02D29C0D5018C91662D681BF60180812A
:100FC000252D492D880D0E948900D7018C91662D11
:100FD000681BF8018081272D492D880D0E9489000A
:100FE0009394F4E09F12E6CF839421E0A21AB10813
:100FF00061E0C61AD10881E0E81AF1080150110930
:101000008F1609F49EC0952CD5CF24969FAD2497BA
:10101000933009F044C08E010C5D1F4F4E01A4E1D6
:101020008A0E911CE12CF12C0F2EF3E04F2EF02DA7
:1010300027C0F6014081450DD8018C91642D681BB5
:1010400020E0862D0E948900F5014081450DD401E4
:101050008C91642D681B272D862D0E948900639436
:10106000B4E06B12E6CFEFEFEE1AFE0A0150110961
:10107000F1E08F1A910824E0E216F10409F4B2C0FD
:10108000612C5E2C0F2EF1E3CF2ED12CF02DCC0E47
:10109000DD1ECE0CDF1C5101AE0CBF1CCACF249646
:1010A0006FAD2497623031F14CC0D6018C91452D43
:1010B000481BF7018081642D681B20E0862D0E946B
:1010C0008900D8018C91452D481BF5018081642D44
:1010D000681B272D862D0E9489006394F4E06F120F
:1010E000E4CF2FEF821A920A64E08616910441F44D
:1010F0000C940F13812C912C0F2EF3E04F2EF02D1A
:10110000612C582C0F2EF1E3CF2ED12CF02DCC0ECC
:10111000DD1EC80CD91C0F2EF1E2EF2EF12CF02DA4
:10112000EC0EFD1EE80CF91C8101080D191D0F2E97
:10113000F1E1AF2EB12CF02DAC0EBD1EA80CB91CE8
:10114000B4CF24968FAD2497853041F14BC0D601A2
:101150008C91642D681BF701808120E0462DF52DD0
:10116000F81B8F2F0E948900D8018C91642D681B79
:10117000F5018081272D462DF52DF81B8F2F0E941C
:101180008900639424E06212E2CF6FEF861A960A18
:1011900084E08816910441F40C94E412812C912C83
:1011A0000F2EF3E04F2EF02D612C582C0F2EF1E274
:1011B000CF2ED12CF02DCC0EDD1EC80CD91C0F2E3D
:1011C000F1E3EF2EF12CF02DEC0EFD1EE80CF91CD6
:1011D00001E110E00C0F1D1F080D191D5101A80C95
:1011E000B91CB5CF29969FAD2997913009F019C147
:1011F0002496AFAD2497A430E9F58E010C5D1F4F06
:101200004E01B4E18B0E911CE12CF12C412C23C03A
:10121000F6018081242D462DD8016C91850D0E9408
:101220008900F5018081272D462DD4016C91850D13
:101230000E9489006394B4E06B12EACFEFEFEE1ADC
:10124000FE0A01501109F1E08F1A910824E0E2161C
:10125000F10409F49CC0642C5E2C0F2EF1E3CF2E18
:10126000D12CF02DCC0EDD1ECE0CDF1C5101AE0CAE
:10127000BF1CCECF24966FAD24976330E9F58E0165
:101280000C5D1F4F4E0184E1880E911CE12CF12C66
:10129000412C23C0D6014C91450D242DF8016081CD
:1012A000862D0E948900D5014C91450D272DF40112
:1012B0006081862D0E9489006394F4E06F12EACF6A
:1012C0002FEFE21AF20A0150110961E0861A910823
:1012D00084E0E816F10409F4A4C0642C5E2C0F2EFF
:1012E000F1E3CF2ED12CF02DCC0EDD1ECE0CDF1C69
:1012F0005101AE0CBF1CCECF24969FAD24979230E7
:1013000011F145C0D6018C91452D481B242DF701C4
:101310006081862D0E948900D8018C91452D481B43
:10132000272DF5016081862D0E9489006394F4E0E9
:101330006F12E8CF2FEF821A920A64E086169104AA
:1013400029F40C941813812C912C412C642C582CCA
:101350000F2EF1E3CF2ED12CF02DCC0EDD1EC80CBC
:10136000D91C0F2EF1E2EF2EF12CF02DEC0EFD1E0C
:10137000E80CF91C8101080D191D0F2EF1E1AF2EAB
:10138000B12CF02DAC0EBD1EA80CB91CBBCF249601
:101390008FAD2497853021F144C0D7018C91242D45
:1013A000462DF6016081F52DF81B8F2F0E948900D4
:1013B000D5018C91272D462DF8016081F52DF81B64
:1013C0008F2F0E948900639424E06212E6CF6FEFB2
:1013D000861A960A84E08816910429F40C94EB127C
:1013E000812C912C412C642C582C0F2EF1E2CF2E05
:1013F000D12CF02DCC0EDD1EC80CD91C0F2EF1E324
:10140000EF2EF12CF02DEC0EFD1EE80CF91C01E185
:1014100010E00C0F1D1F080D191D5101A80CB91C5F
:10142000BCCF2A969FAD2A97913009F015C124961A
:10143000AFAD2497A130E9F58E010C5D1F4F4E0131
:10144000B4E18B0E911CE12CF12C412C23C0F60150
:101450006081650D242DD8014C91862D0E94890054
:10146000F5016081650D272DD4014C91862D0E94D8
:1014700089006394B4E06B12EACFEFEFEE1AFE0A34
:1014800001501109F1E08F1A910824E0E216F104ED
:1014900009F49BC0642C5E2C0F2EF1E3CF2ED12CCF
:1014A000F02DCC0EDD1ECE0CDF1C5101AE0CBF1C8E
:1014B000CECF24966FAD24976430E9F58E010C5D94
:1014C0001F4F4E0184E1880E911CE12CF12C412C20
:1014D00023C0D6018C91242DF8014081662D850D05
:1014E0000E948900D5018C91272DF4014081662D41
:1014F000850D0E9489006394F4E06F12EACF2FEF0C
:10150000E21AF20A0150110961E0861A910884E09A
:10151000E816F10409F4A0C0642C5E2C0F2EF1E350
:10152000CF2ED12CF02DCC0EDD1ECE0CDF1C5101A8
:10153000AE0CBF1CCECF24969FAD2497953021F1E1
:1015400044C0D7018C91242DF6014081662DF52DE4
:10155000F81B8F2F0E948900D5018C91272DF8014F
:101560004081662DF52DF81B8F2F0E948900639412
:1015700024E06212E6CF6FEF861A960A84E088169E
:10158000910429F40C942013812C912C412C642C6F
:10159000582C0F2EF1E2CF2ED12CF02DCC0EDD1ECB
:1015A000C80CD91C0F2EF1E3EF2EF12CF02DEC0E10
:1015B000FD1EE80CF91C01E110E00C0F1D1F080DC9
:1015C000191D5101A80CB91CBCCF24969FAD2497BE
:1015D000992309F141C0D7018C91652D681B242DF9
:1015E000F6014081862D0E948900D5018C91652DE0
:1015F000681B272DF8014081862D0E948900639485
:10160000F4E06F12E8CF2FEF821A920A64E0861698
:10161000910421F4E7C7812C912C412C642C582C87
:101620000F2EF1E2CF2ED12CF02DCC0EDD1EC80CEA
:10163000D91C0F2EF1E3EF2EF12CF02DEC0EFD1E38
:10164000E80CF91C01E110E00C0F1D1F080D191D1D
:101650005101A80CB91CBFCF26968FAD26978130BB
:1016600009F018C124969FAD24979130E9F58E01B9
:101670000C5D1F4F4E01A4E18A0E911CE12CF12C50
:10168000412C23C0F6016081650D242D462DD80123
:101690008C910E948900F5016081650D272D462DF2
:1016A000D4018C910E9489006394B4E06B12EACF5C
:1016B000EFEFEE1AFE0A01501109F1E08F1A9108BE
:1016C00024E0E216F10409F49BC0642C5E2C0F2E7A
:1016D000F1E3CF2ED12CF02DCC0EDD1ECE0CDF1C75
:1016E0005101AE0CBF1CCECF24966FAD2497633052
:1016F000E9F58E010C5D1F4F4E0184E1880E911CAF
:10170000E12CF12C412C23C0D6014C91450D242D08
:10171000662DF80180810E948900D5014C91450D0C
:10172000272D662DF40180810E9489006394F4E0E6
:101730006F12EACF2FEFE21AF20A0150110961E0AD
:10174000861A910884E0E816F10409F458C7642C5D
:101750005E2C0F2EF1E3CF2ED12CF02DCC0EDD1E02
:10176000CE0CDF1C5101AE0CBF1CCECF24969FAD1A
:101770002497923009F144C0D6018C91452D481B25
:10178000242D662DF70180810E948900D8018C915B
:10179000452D481B272D662DF50180810E9489006B
:1017A0006394F4E06F12E8CF2FEF821A920A64E09C
:1017B0008616910421F423C7812C912C412C642C92
:1017C000582C0F2EF1E3CF2ED12CF02DCC0EDD1E98
:1017D000C80CD91C0F2EF1E2EF2EF12CF02DEC0EDF
:1017E000FD1EE80CF91C8101080D191D0F2EF1E1F9
:1017F000AF2EB12CF02DAC0EBD1EA80CB91CBCCF69
:1018000024968FAD2497882309F1F9C6D6018C91CF
:10181000652D681B242D462DF70180810E948900CB
:10182000D8018C91652D681B272D462DF5018081EF
:101830000E9489006394F4E06F12E8CF2FEF821AC0
:10184000920A64E08616910421F4D2C6812C912C70
:10185000412C642C582C0F2EF1E3CF2ED12CF02DDF
:10186000CC0EDD1EC80CD91C0F2EF1E2EF2EF12C90
:10187000F02DEC0EFD1EE80CF91C8101080D191D60
:101880000F2EF1E1AF2EB12CF02DAC0EBD1EA80C29
:10189000B91CBCCF28968FAD2897813009F032C192
:1018A00024969FAD2497911149C0812C912C0F2E25
:1018B000F3E04F2EF02D24C0D6018C91442D481B0F
:1018C000F7018081652D681B20E0862D0E9489002C
:1018D000D8018C91442D481BF5018081652D681B32
:1018E000272D862D0E9489006394F4E06F12E4CFC7
:1018F0002FEF821A920A64E08616910409F46FC0F1
:10190000612C582C0F2EF1E2CF2ED12CF02DCC0EC5
:10191000DD1EC80CD91C0F2EF1E3EF2EF12CF02D9B
:10192000EC0EFD1EE80CF91C01E110E00C0F1D1F70
:10193000080D191D5101A80CB91CBECF24968FADFE
:101940002497853009F04BC026C0D6018C91442DD8
:10195000481BF701808120E0662DF52DF81B8F2FA5
:101960000E948900D8018C91442D481BF50180818B
:10197000272D662DF52DF81B8F2F0E94890063946B
:1019800024E06212E2CF6FEF861A960A84E088168E
:10199000910439F4B7C0812C912C0F2EF3E04F2E17
:1019A000F02D612C582C0F2EF1E2CF2ED12CF02DE2
:1019B000CC0EDD1EC80CD91C0F2EF1E3EF2EF12C3E
:1019C000F02DEC0EFD1EE80CF91C01E110E00C0FEF
:1019D0001D1F080D191D5101A80CB91CB6CF249666
:1019E0009FAD2497943009F044C08E010C5D1F4FC9
:1019F0004E01A4E18A0E911CE12CF12C0F2EF3E094
:101A00004F2EF02D27C0F8018081442D481BD601B0
:101A10008C9120E0662D850D0E948900F401808163
:101A2000442D481BD5018C91272D662D850D0E94D4
:101A300089006394B4E06B12E6CFEFEFEE1AFE0A72
:101A400001501109F1E08F1A910824E0E216F10427
:101A500009F458C0612C5E2C0F2EF1E3CF2ED12C4F
:101A6000F02DCC0EDD1ECE0CDF1C5101AE0CBF1CC8
:101A7000CACF24966FAD2497613009F043C08E0120
:101A80000C5D1F4F4E0184E1880E911CE12CF12C5E
:101A90000F2EF3E04F2EF02D26C0D8018C91442D4F
:101AA000481BF6016081650D20E0862D0E948900AB
:101AB000D4018C91442D481BF5016081650D272DC3
:101AC000862D0E9489006394F4E06F12E6CF2FEF19
:101AD000E21AF20A0150110961E0861A910884E0C5
:101AE000E816F10479F0612C5E2C0F2EF1E3CF2E75
:101AF000D12CF02DCC0EDD1ECE0CDF1C5101AE0C16
:101B0000BF1CCBCF9FEFADEEB2E09150A040B040F4
:101B1000E1F700C000008E010F5E1F4F9E012F5D98
:101B20003F4FA101CE01C1967E01E5E1EE0EF11C11
:101B30002B96AFAD2B972C96BFAD2C972D96EFAD76
:101B40002D972E96FFAD2E976D016191D9016D9362
:101B50009D01D6016D916D01DC016D93CD01EE15F6
:101B6000FF0599F78C89833009F019C5CE010596D8
:101B7000FA0120812F5F2193E817F907D1F78C81B3
:101B8000843009F007C5BFEFE9EFF0E0B150E04065
:101B9000F040E1F700C000006FE082E00E943802F0
:101BA000782E62E080E00E94380225962FAD2597BE
:101BB000213009F067C024966FAD2497611115C0DC
:101BC000882339F0813009F47FC2823009F488C259
:101BD00004C082E024968FAF249791E029969FAFAE
:101BE000299725961FAE2597C3C42496AFAD249799
:101BF000A130A9F4882339F0813009F47DC2823004
:101C000009F486C204C0B5E02496BFAF2497E1E092
:101C10002796EFAF279725961FAE2597A9C4249640
:101C2000FFAD2497F230A1F4882339F0813009F414
:101C30007BC2823009F484C203C024961FAE24976D
:101C400021E02A962FAF2A9725961FAE259790C49C
:101C500024966FAD2497633009F07EC2882339F053
:101C6000813009F47DC2823009F486C203C0249613
:101C70001FAE249781E028968FAF289725961FAE38
:101C8000259776C426969FAD2697913009F067C0B8
:101C90002496AFAD2497A11115C0882339F0813067
:101CA00009F476C2823009F47FC204C0B2E02496FF
:101CB000BFAF2497E1E02996EFAF299726961FAE94
:101CC000269756C42496FFAD2497F130A9F48823B3
:101CD00039F0813009F474C2823009F47DC204C045
:101CE00022E024962FAF249761E027966FAF2797C5
:101CF00026961FAE26973CC424969FAD249792301B
:101D0000A1F4882339F0813009F472C2823009F4D9
:101D10007BC203C024961FAE2497A1E02A96AFAFE2
:101D20002A9726961FAE269723C42496BFAD2497E4
:101D3000B33009F075C2882339F0813009F474C2D8
:101D4000823009F47DC203C024961FAE2497E1E0DF
:101D50002896EFAF289726961FAE269709C4279698
:101D6000FFAD2797F13009F066C024962FAD249778
:101D70002430A9F4882339F0813009F46DC282300F
:101D800009F476C204C062E024966FAF24972796C8
:101D90001FAE279781E025968FAF2597E9C324963C
:101DA0009FAD24979530A1F4882339F0813009F450
:101DB0006AC2823009F473C203C024961FAE24970E
:101DC00027961FAE2797A1E02696AFAF2697D0C3E0
:101DD0002496BFAD2497B230A1F4882339F0813026
:101DE00009F469C2823009F472C203C024961FAE9E
:101DF0002497E1E02A96EFAF2A9727961FAE279700
:101E0000B7C32496FFAD2497F33009F06CC2882342
:101E100039F0813009F46BC2823009F474C203C016
:101E200024961FAE249721E028962FAF2897279657
:101E30001FAE27979DC329966FAD2997613009F092
:101E400069C024969FAD24979430A9F4882339F073
:101E5000813009F464C2823009F46DC204C0A3E089
:101E60002496AFAF249729961FAE2997B1E0259607
:101E7000BFAF25977DC32496EFAD2497E530A9F435
:101E8000882339F0813009F462C2823009F46BC2D0
:101E900004C0F2E02496FFAF249729961FAE29973D
:101EA00021E026962FAF269763C324966FAD249723
:101EB0006230A9F4882339F0813009F460C282309D
:101EC00009F469C204C081E024968FAF249791E0A1
:101ED0002A969FAF2A9729961FAE299749C3249621
:101EE000AFAD2497A33009F062C2882339F0813066
:101EF00009F461C2823009F46AC204C0B1E02496D8
:101F0000BFAF2497E1E02896EFAF289729961FAE40
:101F100029972EC32896FFAD2897F13009F067C0A6
:101F200024962FAD24972430A9F4882339F08130EA
:101F300009F459C2823009F461C204C062E02496F7
:101F40006FAF249728961FAE289781E025968FAF14
:101F500025970EC324969FAD24979530A1F488232E
:101F600039F0813009F456C2823009F45FC203C0EF
:101F700024961FAE249728961FAE2897A1E0269698
:101F8000AFAF2697F5C22496BFAD2497B11115C007
:101F9000882339F0813009F455C2823009F45EC2D9
:101FA00004C0E2E02496EFAF249728961FAE28974E
:101FB000F1E02996FFAF2997DBC224962FAD249735
:101FC000213009F057C2882331F0813009F456C21C
:101FD000823029F45FC262E024966FAF249728967E
:101FE0001FAE289781E027968FAF2797C1C22A9608
:101FF0009FAD2A97913009F0BBC22496AFAD2497CC
:10200000A430A9F4882339F0813009F44FC282301A
:1020100009F457C204C0B3E02496BFAF24972A96B0
:102020001FAE2A97E1E02596EFAF2597A1C224962F
:10203000FFAD2497F530A1F4882339F0813009F4FD
:102040004CC2823009F455C203C024961FAE2497B7
:102050002A961FAE2A9721E026962FAF269788C290
:1020600024966FAD2497611115C0882339F0813013
:1020700009F44BC2823009F454C204C083E02496B0
:102080008FAF24972A961FAE2A9791E029969FAF8B
:1020900029976EC22496AFAD2497A13009F04DC2A6
:1020A000882331F0813009F44CC2823029F455C2C2
:1020B000B3E02496BFAF24972A961FAE2A97E1E09B
:1020C0002796EFAF279754C2F3E02496FFAF2497EB
:1020D00021E029962FAF299725961FAE259748C254
:1020E00065E024966FAF249781E029968FAF2997FA
:1020F00025961FAE25973CC292E024969FAF249769
:10210000A1E02796AFAF279725961FAE259730C23F
:10211000B3E02496BFAF2497E1E02796EFAF27976F
:1021200025961FAE259724C2F1E02496FFAF249791
:1021300021E02A962FAF2A9725961FAE259718C221
:1021400065E024966FAF249781E02A968FAF2A9797
:1021500025961FAE25970CC225961FAE259708C25F
:1021600091E024969FAF2497A1E02896AFAF2897DF
:1021700025961FAE2597FCC1B5E02496BFAF2497E6
:10218000E1E02896EFAF289725961FAE2597F0C17E
:10219000F3E02496FFAF249721E029962FAF2997EB
:1021A00026961FAE2697E4C164E024966FAF24976D
:1021B00081E029968FAF299726961FAE2697D8C122
:1021C00093E024969FAF2497A1E02796AFAF27977F
:1021D00026961FAE2697CCC1B4E02496BFAF2497B5
:1021E000E1E02796EFAF279726961FAE2697C0C14E
:1021F000F1E02496FFAF249721E02A962FAF2A978B
:1022000026961FAE2697B4C164E024966FAF24973C
:1022100081E02A968FAF2A9726961FAE2697A8C1EF
:1022200026961FAE2697A4C191E024969FAF2497CF
:10223000A1E02896AFAF289726961FAE269798C1A3
:10224000B4E02496BFAF2497E1E02896EFAF28973B
:1022500026961FAE26978CC1F3E02496FFAF2497F5
:1022600027961FAE279721E025962FAF259780C18F
:1022700024961FAE249727961FAE279761E02596D8
:102280006FAF259775C182E024968FAF249727966C
:102290001FAE279791E026969FAF269769C1A3E0CE
:1022A0002496AFAF249727961FAE2797B1E02696C6
:1022B000BFAF26975DC1E5E02496EFAF2497F1E02C
:1022C0002A96FFAF2A9727961FAE279751C124E081
:1022D00024962FAF249761E02A966FAF2A9727960E
:1022E0001FAE279745C127961FAE279741C185E0AE
:1022F00024968FAF249791E028969FAF2897279632
:102300001FAE279735C1A4E02496AFAF2497B1E064
:102310002896BFAF289727961FAE279729C1E2E0DE
:102320002496EFAF249729961FAE2997F1E02596C2
:10233000FFAF25971DC121E024962FAF2497299642
:102340001FAE299761E025966FAF259711C183E0F5
:1023500024968FAF249729961FAE299791E0269651
:102360009FAF269705C1A1E02496AFAF2497299689
:102370001FAE2997B1E02696BFAF2697F9C0E5E0DA
:102380002496EFAF2497F1E02A96FFAF2A9729967B
:102390001FAE2997EDC024E024962FAF249761E06B
:1023A0002A966FAF2A9729961FAE2997E1C02996E2
:1023B0001FAE2997DDC085E024968FAF249791E06A
:1023C00028969FAF289729961FAE2997D1C0A4E0E1
:1023D0002496AFAF2497B1E02896BFAF28972996EF
:1023E0001FAE2997C5C024961FAE249728961FAE0E
:1023F0002897E1E02596EFAF2597BAC0F1E0249643
:10240000FFAF249728961FAE289721E025962FAF7F
:102410002597AEC062E024966FAF249728961FAE32
:10242000289781E026968FAF2697A2C091E0249648
:102430009FAF249728961FAE2897A1E02696AFAFAE
:10244000269796C0B5E02496BFAF249728961FAE76
:102450002897E1E02996EFAF29978AC0F4E0249607
:10246000FFAF249728961FAE289721E029962FAF1B
:1024700029977EC028961FAE28977AC065E02496DB
:102480006FAF249728961FAE289781E027968FAFCD
:1024900027976EC094E024969FAF249728961FAE8E
:1024A0002897A1E02796AFAF279762C024961FAE6A
:1024B00024972A961FAE2A97B1E02596BFAF25979D
:1024C00057C0E1E02496EFAF24972A961FAE2A97D3
:1024D000F1E02596FFAF25974BC023E024962FAF60
:1024E00024972A961FAE2A9761E026966FAF26970B
:1024F0003FC081E024968FAF24972A961FAE2A977B
:1025000091E026969FAF269733C0A5E02496AFAF03
:1025100024972A961FAE2A97B1E02996BFAF299734
:1025200027C0E4E02496EFAF24972A961FAE2A979F
:10253000F1E02996FFAF29971BC02A961FAE2A9774
:1025400017C025E024962FAF24972A961FAE2A970E
:1025500061E027966FAF27970BC084E024968FAF7A
:1025600024972A961FAE2A9791E027969FAF279728
:1025700019AA19821AAA1A821BAA1B821CAA1C82D7
:102580008CEF898B8DEF8A8B8EEF8B8B8FEF8C8B03
:10259000F80106C08C89833049F0F80101C0F801C8
:1025A00080818F5F8193EE15FF05D1F780912A011D
:1025B000883210F40C946E0651C02796AFAD279761
:1025C000A13069F50C944F082996BFAD2997B13019
:1025D00079F50C947C092A96EFAD2A97E13081F5C4
:1025E0000C949B0A2696FFAD2697F13081F5BEC864
:1025F00028962FAD2897213009F084CA56C928960D
:102600006FAD2897613009F07DCA98C927968FADC4
:102610002797813011F00C94F2080C940508299644
:102620009FAD2997913011F00C94110A0C943A093E
:102630002A96AFAD2A97A13009F00EC80C94590A1A
:102640002696BFAD2697B13009F024C94DC828960B
:10265000EFAD2897E13009F055CA27C9C35BDF4FBA
:102660000FB6F894DEBF0FBECDBFDF91CF911F91A3
:102670000F91FF90EF90DF90CF90BF90AF909F9021
:102680008F907F906F905F904F903F902F90089524
:102690002F923F924F925F926F927F928F929F9272
:1026A000AF92BF92CF92DF92EF92FF920F931F9360
:1026B000CF93DF93CDB7DEB7C659D1400FB6F894AC
:1026C000DEBF0FBECDBF8E010F5F1F4FBE016D5C21
:1026D0007F4FAE014B595F4F9E0129563F4FCE01B0
:1026E00087539F4FDE01A550BF4FFE01E35DFE4FB4
:1026F0000F2EF5E1FF2EF02D6D01DB0158018F014A
:10270000B601F50111925F011D92FA011192AF011C
:10271000F90111929F01FC011192CF01FB0111926D
:10272000BF01F80111928F01FA9459F710922A0112
:10273000F1E0CA56DE4FF883C659D14021E0CB56AE
:10274000DE4F2883C559D14081E0CC58DE4F8883C5
:10275000C457D140DE01AA59BF4FC15ADE4FB983D9
:10276000A883CF55D140FE01F496CF59DE4FF983AF
:10277000E883C156D140CE010296CD59DE4F9983F0
:102780008883C356D140ADE2B1E0AC0FBD1F1196B6
:10279000C558DE4FB983A883CB57D140EBEFF0E0AB
:1027A000EC0FFD1F3196CB58DE4FF983E883C557F8
:1027B000D14089EC90E08C0F9D1F0196C958DE4FE7
:1027C00099838883C757D140A7E9B0E0AC0FBD1FFC
:1027D0001196C758DE4FB983A883C957D140C75750
:1027E000DE4FA883C958D140C657DE4FB883CA58B8
:1027F000D140C557DE4F8883CB58D140C457DE4FF8
:102800009883CC58D140C357DE4FE883CD58D14090
:10281000C257DE4FF883CE58D140CD59DE4FB88134
:10282000C356D140C157DE4FB883CF58D140CC59A1
:10283000DE4FE881C456D140C057DE4FE883C0590F
:10284000D140CF59DE4FF881C156D140CF56DE4F2F
:10285000F883C159D140CE59DE4F2881C256D140AC
:10286000CE56DE4F2883C259D140C15ADE4F8881EF
:10287000CF55D140CD56DE4F8883C359D140C05A81
:10288000DE4F9881C056D140CC56DE4F9883C45954
:10289000D140A7E9B0E0AC0FBD1F5496C358DE4F3E
:1028A000B983A883CD57D140E7E9F0E0EC0FFD1FD5
:1028B0007596C158DE4FF983E883CF57D14089EC34
:1028C00090E08C0F9D1F4496CF57DE4F99838883ED
:1028D000C158D140A9ECB0E0AC0FBD1F5596CD5703
:1028E000DE4FB983A883C358D140EBEFF0E0EC0F83
:1028F000FD1F7496CB57DE4FF983E883C558D1404E
:102900008BEF90E08C0F9D1F4596C957DE4F998342
:102910008883C758D1400E94031A63E070E00E9488
:102920008A19CB59DE4F8883C556D1400F2EF6E663
:102930002F2E312CF02D2C0E3D1EDE01D496C259C7
:10294000DE4FB983A883CE56D140FE013296C659D8
:10295000DE4FF983E883CA56D140C558DE4F8880E0
:102960009980CB57D140CB58DE4F88819981C5578C
:10297000D140C059DE4F99838883C057D140C95890
:10298000DE4FA881B981C757D140C459DE4FB98302
:10299000A883CC56D140C758DE4FE881F981C9578A
:1029A000D140C859DE4FF983E883C856D140C75794
:1029B000DE4F6880C958D140C657DE4F7880CA586C
:1029C000D140C557DE4F4880CB58D140C457DE4F69
:1029D0005880CC58D140C357DE4FA880CD58D14045
:1029E000C257DE4FB880CE58D140C157DE4FC880A5
:1029F000CF58D140C057DE4FD880C059D140CF56B4
:102A0000DE4FE880C159D140CE56DE4FF880C25922
:102A1000D140CD56DE4FF881C359D140CA59DE4F5F
:102A2000F883C656D140CC56DE4F2881C459D140D8
:102A3000C959DE4F2883C756D14014E1CE58DE4F26
:102A400039822882C257D140312ECA59DE4F0881BF
:102A50001981C656D140D8014D918D01F701619180
:102A60007F0120E0D6018D916D010E948900F40163
:102A700021914F01D5014D915D01F20161912F012D
:102A8000D3018D913D010E9489003A9421F7CE58DF
:102A9000DE4F28803980C257D14081E0C859DE4FCF
:102AA00008811981C856D140C659DE4FA881B98125
:102AB000CA56D140C459DE4F28813981CC56D14005
:102AC000C259DE4F48815981CE56D140C059DE4FA0
:102AD00068817981C057D140F80191918F019D9310
:102AE000F90191919F01FA019193AF01FB0191913D
:102AF000BF01F10191931F018F5F853169F7FFEFEE
:102B000029EF80E0F15020408040E1F700C0000054
:102B1000CB59DE4F9881C556D140911111C0C9568D
:102B2000DF4F8881C759D040CC58DE4FA881C457A9
:102B3000D1408A0FC956DF4F8883C759D04030C073
:102B4000CB59DE4FB881C556D140B13089F4C75357
:102B5000DF4F8881C95CD040CB56DE4FE881C55934
:102B6000D1408E0FC753DF4F8883C95CD04030C03F
:102B7000CB59DE4FF881C556D140F23089F4C550AB
:102B8000DF4F8881CB5FD040CA56DE4F2881C659BF
:102B9000D140820FC550DF4F8883CB5FD04030C01B
:102BA000CB59DE4F8881C556D140833089F4C95650
:102BB000DF4F8881C759D040CC58DE4F9881C45729
:102BC000D140891BC956DF4F8883C759D0402FC0D9
:102BD000CB59DE4FA881C556D140A43089F4C753E4
:102BE000DF4F8881C95CD040CB56DE4FB881C559D4
:102BF000D1408B1BC753DF4F8883C95CD04017C0BF
:102C0000CB59DE4FE881C556D140E53081F4C5503F
:102C1000DF4F8881CB5FD040CA56DE4FF881C6595E
:102C2000D1408F1BC550DF4F8883CB5FD040C95642
:102C3000DF4F8881C759D0408430ECF083E0C9561B
:102C4000DF4F8883C759D0400E94031A8F70907855
:102C5000992324F40197806F9F6F0196C35DDE4F27
:102C60008883CD52D1400E94031A2FEFCC58DE4FFB
:102C70002883C457D140C956DF4F8881C759D040F7
:102C80008823E4F4C956DF4F1882C759D0400E9408
:102C9000031A8F709078992324F40197806F9F6FA7
:102CA0000196C35DDE4F8883CD52D1400E94031A46
:102CB00081E0CC58DE4F8883C457D140C753DF4FE3
:102CC0008881C95CD0408430ACF083E0C753DF4FCB
:102CD0008883C95CD040C35DDE4F1882CD52D1409D
:102CE0000E94031A0E94031A9FEFCB56DE4F98836F
:102CF000C559D140C753DF4F8881C95CD040882374
:102D0000A4F4C753DF4F1882C95CD040C35DDE4FC7
:102D10001882CD52D1400E94031A0E94031AA1E0EA
:102D2000CB56DE4FA883C559D140C550DF4F8881AF
:102D3000CB5FD0408430ECF083E0C550DF4F888318
:102D4000CB5FD0400E94031A8F709078992324F4AF
:102D50000197806F9F6F0196C35DDE4F8883CD52D0
:102D6000D1400E94031ABFEFCA56DE4FB883C6593E
:102D7000D140C550DF4F8881CB5FD0408823E4F439
:102D8000C550DF4F1882CB5FD0400E94031A8F706E
:102D90009078992324F40197806F9F6F0196C35D0B
:102DA000DE4F8883CD52D1400E94031AE1E0CA561B
:102DB000DE4FE883C659D140C358DE4FE880F98022
:102DC000CD57D140C158DE4F08811981CF57D1402E
:102DD000CF57DE4F68817981C158D140CD57DE4F42
:102DE00048815981C358D140CB57DE4F2881398162
:102DF000C558D140C957DE4F88819981C758D14005
:102E0000ADE2B1E0AC0FBD1F5496EDE2F1E0EC0F86
:102E1000FD1F75960F2EF4E1DF2EF02D5F01FA01F4
:102E2000AD0148018501D701CE907D01D401CE923C
:102E30004D01DB01CE90BD01C292D901CE909D0122
:102E4000DC01CE92CD01DA01CE90AD01D801CE9257
:102E50008D01DA9441F780912A018A3008F45BCD24
:102E6000CA56DE4F0FB6F894DEBF0FBECDBFDF915E
:102E7000CF911F910F91FF90EF90DF90CF90BF9077
:102E8000AF909F908F907F906F905F904F903F900A
:102E90002F9008952F923F924F925F926F927F9260
:102EA0008F929F92AF92BF92CF92DF92EF92FF925A
:102EB0000F931F93CF93DF93CDB7DEB760970FB615
:102EC000F894DEBF0FBECDBF198281E08D838A8367
:102ED0008E8392E09B838F8393E09C8388871092FC
:102EE0002A01912CCE0101969E878D876E0199E073
:102EF000C90ED11C8F87AE85A88B772473942224AA
:102F00002A94B12C0F2EF3E06F2EF02D862CC0C02A
:102F1000CF012081233019F4DA012C9204C0211151
:102F200002C0DA017C92DA013D91AD01230FDC0190
:102F30002C9331964C155D0559F78981833059F4EE
:102F40000E94031A66E070E00E948A190F2EFAE0D0
:102F50009F2EF02D980E7601AB2CF70151907F013A
:102F60002B2D4B2D6A2D852D0E9489002B2D4A2D4E
:102F70006B2D852D0E948900462C4A182B2D482D3B
:102F8000642D852D0E9489002B2D442D682D852DC3
:102F90000E948900D8015D908D01292D4B2D6A2D4D
:102FA000852D0E948900292D4A2D6B2D852D0E948B
:102FB0008900292D482D642D852D0E948900292DF9
:102FC000442D682D852D0E948900A394B4E0AB1296
:102FD000C4CF0F2EFAE0EF2EF12CF02DEC0EFD1EDB
:102FE0008E010E5F1F4FA72CF70151907F012B2DF3
:102FF000472D6A2D852D0E9489002B2D4A2D672D86
:10300000852D0E948900462C4A182B2D42E0642D04
:10301000852D0E9489002B2D442D62E0852D0E9474
:1030200089003A2C330C3A0CD8015D908D01232D88
:10303000472D6A2D852D0E948900232D4A2D672D4D
:10304000852D0E948900232D42E0642D852D0E944C
:103050008900232D442D62E0852D0E948900A394D0
:10306000B3E0AB12C1CF898189878A818A878B813E
:103070008B878C818C87EFEFF1EE24E0E150F040FC
:103080002040E1F700C0000080912A018A3048F416
:10309000AE014B5F5F4F8E010F5F1F4FEF85F889C9
:1030A00037CF60960FB6F894DEBF0FBECDBFDF916D
:1030B000CF911F910F91FF90EF90DF90CF90BF9035
:1030C000AF909F908F907F906F905F904F903F90C8
:1030D0002F9008954F925F926F927F928F92AF924E
:1030E000BF92CF92DF92EF920F931F93CF93DF9314
:1030F00010922A010F2EF6E04F2E512CF02D0F2E9C
:10310000FCE06F2E712CF02D0F2EF3E0AF2EF02D82
:10311000B12CCB2CDB2CD3C00E94031AB2010E942D
:103120008A19C82F0E94031AB3010E948A19689451
:10313000EE24E2F8E80ECC23E1F01EC02E2D402F45
:103140006D2F812F0E9489000F5F0430B9F71F5F38
:10315000143011F00D2DF2CF2FEF86E791E02150C2
:1031600080409040E1F700C00000DF5FD43011F4F0
:1031700045C0DB2D1C2DEECFC130F9F41BC02E2D28
:10318000402F612F8D2F0E9489000F5F0430B9F707
:103190001F5F143011F00D2DF2CF2FEF86E791E075
:1031A000215080409040E1F700C00000DF5FD43044
:1031B00011F444C0DB2D1C2DEECFC230E1F01EC057
:1031C0002E2D4D2F602F812F0E9489000F5F04301C
:1031D000B9F71F5F143011F00D2DF2CF2FEF86E7F6
:1031E00091E0215080409040E1F700C00000DF5F97
:1031F000D43011F443C0DB2D1C2DEECFC330D9F0F9
:103200001DC02E2D412F6C2F8D2F0E9489001F5F16
:103210001430B9F7DF5FD43011F01D2DF2CF2FEF4E
:1032200086E791E0215080409040E1F700C0000027
:10323000C15010F444C0CA2DDC2DEFCFC430D9F0FA
:103240001DC02E2D412F6D2F8C2F0E9489001F5FD6
:103250001430B9F7DF5FD43011F01D2DF2CF2FEF0E
:1032600086E791E0215080409040E1F700C00000E7
:10327000C15010F424C0CA2DDC2DEFCFC530F9F4B5
:103280008A2C1BC02E2D482D6D2F8C2F0E9489005B
:10329000DF5FD430B9F7CF5FC43011F0DD2DF2CF4E
:1032A0002FEF86E791E0215080409040E1F700C089
:1032B00000008A942FEF821611F0CC2DEFCF809171
:1032C0002A018A3008F428CFDF91CF911F910F9106
:1032D000EF90DF90CF90BF90AF908F907F906F90E6
:1032E0005F904F900895F8940E9476000E948000AD
:1032F0000E9453000E94690078940E9448020E9434
:103300004F040E940F060E9448130E944A170E9411
:103310006A18F3CF97FB072E16F4009407D077FDB9
:1033200009D00E949E1907FC05D03EF49095819526
:103330009F4F0895709561957F4F0895AA1BBB1B01
:1033400051E107C0AA1FBB1FA617B70710F0A61BA5
:10335000B70B881F991F5A95A9F780959095BC01C6
:10336000CD0108958F929F92AF92BF92CF92DF923C
:10337000EF92FF92CF93DF93EC01688179818A818C
:103380009B81611571058105910521F464E279ED58
:103390008BE597E02DE133EF41E050E00E94131AF6
:1033A00049015A019B01AC01A7EAB1E40E942F1A1E
:1033B0006B017C01ACEEB4EFA50194010E943D1AB3
:1033C000C60ED71EE81EF91EF7FE06C081E0C81A19
:1033D000D108E10880E8F80AC882D982EA82FB8233
:1033E000E894D7F8EE24FF24C601DF91CF91FF9037
:1033F000EF90DF90CF90BF90AF909F908F90089507
:103400000E94B219089580E091E00E94B2190895D7
:10341000A0E0B0E08093000190930101A09302012D
:10342000B09303010895052E97FB16F4009407D07E
:1034300057FD0DD00E94421A07FC09D07EF49095EA
:103440008095709561957F4F8F4F9F4F0895509550
:103450004095309521953F4F4F4F5F4F08950E9403
:10346000641AA59F900DB49F900DA49F800D911D8F
:1034700011240895B7FF0C942F1A0E942F1A821B53
:10348000930B0895A1E21A2EAA1BBB1BFD010DC0D0
:10349000AA1FBB1FEE1FFF1FA217B307E407F50704
:1034A00020F0A21BB30BE40BF50B661F771F881FE0
:1034B000991F1A9469F760957095809590959B0176
:1034C000AC01BD01CF010895A29FB001B39FC0011F
:1034D000A39F01D0B29F700D811D1124911D0895ED
:0434E000F894FFCF8E
:0634E400010000000200DF
:040000050080012A4C
:00000001FF
