:100000000C9434000C9451000C9451000C94510049
:100010000C9451000C9451000C9451000C9451001C
:100020000C9451000C9451000C9451000C94240138
:100030000C9451000C9451000C943B010C94510011
:100040000C9451000C9451000C9451000C945100EC
:100050000C9451000C9451000C9451000C945100DC
:100060000C9451000C94510011241FBECFEFD8E026
:10007000DEBFCDBF11E0A0E0B1E0EAE2FBE202C0EA
:1000800005900D92A630B107D9F721E0A6E0B1E0C6
:1000900001C01D92AB32B207E1F70E9496140C9496
:1000A00093150C94000010928000E1E8F0E080814C
:1000B00088608083AFE6B0E08C9182608C9389E0A9
:1000C0009DE3909389008093880080818560808380
:1000D000089582E084BDEEE6F0E080818260808356
:1000E0008EE187BD85B5836085BD089584B18E623C
:1000F00084B985B1837D85B9299A549A5C9808950D
:1001000080E58CBD2A9808958EBD0DB407FEFDCF05
:100110000895AF92BF92CF92DF92EF92FF920F932A
:100120001F93CF93DF9387FD03C084301CF403C07B
:1001300080E001C083E067FD03C064301CF403C0AD
:1001400060E001C063E047FD03C044301CF403C01D
:1001500040E001C043E027FD03C020311CF403C090
:1001600020E001C02FE0362F3595880F990B830FC3
:10017000911D37FD9A9554E06502B0011124640F7A
:10018000711D47FD7A95E8E03E026019710911245E
:1001900041E050E0062E01C0440F0A94EAF7A42E75
:1001A000A09432E2C32E31E0D32EC80ED91EF60140
:1001B000B080BA204AE0E42E41E0F42EE80EF91EA9
:1001C000F70170817A21AC014E5E5E4FFA013081F9
:1001D0003A21865E9E4F022F0170062E01C0000F4D
:1001E0000A94EAF7FC0110811A21102B108321FBDD
:1001F000FF27F0F9CF2F062E01C0CC0F0A94EAF7A3
:10020000BC2AF601B08222FBAA27A0F9062E01C063
:10021000AA0F0A94EAF77A2BF701708323FBEE27E3
:10022000E0F9062E01C0EE0F0A94EAF73E2BFA0120
:100230003083DF91CF911F910F91FF90EF90DF906E
:10024000CF90BF90AF9008951F920F920FB60F926C
:1002500011248F939F938BB190E189278BB9809163
:100260002A018F5F80932A019F918F910F900FBE7B
:100270000F901F9018951F920F920FB60F92112496
:100280002F933F934F935F936F937F938F939F939E
:10029000AF93BF93EF93FF93299A809106019091BA
:1002A0000801883009F405C0883109F402C0883398
:1002B00019F49F5F909308018F5F809306018091EE
:1002C0000801813001F130F08230B1F1833009F062
:1002D0006CC04BC08091070109C0F901E65EFE4F7A
:1002E00080810E948400809109018F5F80930901C1
:1002F0002091090130E08091070190E0019682177A
:1003000093075CF752C08091070109C0F901EE5DC7
:10031000FE4F80810E948400809109018F5F80934D
:1003200009012091090130E08091070190E00196D8
:10033000821793075CF739C08091070109C0F90162
:10034000E65FFE4F80810E948400809109018F5FEB
:10035000809309012091090130E08091070190E02C
:100360000196821793075CF720C08091070109C0AE
:10037000F901EE5EFE4F80810E94840080910901A8
:100380008F5F809309012091090130E0809107017E
:1003900090E00196821793075CF7809106018837F9
:1003A00021F41092060110920801809104010E942C
:1003B00084002A9A2A98299880910401880F8093B2
:1003C0000401809107018E5F883019F08093070146
:1003D00005C01092070182E080930401FF91EF9124
:1003E000BF91AF919F918F917F916F915F914F914D
:1003F0003F912F910F900FBE0F901F9018952F9245
:100400003F924F925F926F927F928F929F92AF92A4
:10041000BF92CF92DF92EF92FF920F931F93CF93F1
:10042000DF93CDB7DEB727970FB6F894DEBF0FBEC8
:10043000CDBF0E94261564E0A62EB12CB5010E9406
:10044000AD14182F0E942615B5010E94AD14082F77
:100450000E942615B5010E94AD14F82E0E942615A3
:10046000B5010E94AD14E82E0E942615B5010E9428
:10047000AD14D82E0E942615B5010E94AD14C82EC9
:10048000912C13C020E04B2D6A2D892D0E948900EC
:10049000B39424E0B212F6CFA394A21611F0B12CBB
:1004A000F1CF939484E0981611F0A12CF8CF0E941C
:1004B000261560E170E00E94AD1456E0552E580EEE
:1004C0000E94261565E070E00E94AD14482E43940A
:1004D00010922A01612C712C812C22242394332424
:1004E000339491E09C83912CA12CB12CE1E0EB831F
:1004F000F1E0FA8321E0298354C120E0492D6A2DDF
:100500008B2D0E948900492D4F5F20E06A2D8B2D95
:100510000E948900492D415020E06A2D8B2D0E94B8
:10052000890020E0492D6A2D8B2D8F5F0E94890064
:1005300020E0492D6A2D8B2D81500E9489006A2D63
:100540006F5F20E0492D8B2D0E9489006A2D61503C
:1005500020E0492D8B2D0E94890020E0462D672D3B
:10056000882D0E948900462D4F5F20E0672D882D41
:100570000E948900462D415020E0672D882D0E9461
:10058000890020E0462D672D882D8F5F0E9489000D
:1005900020E0462D672D882D81500E948900672D0F
:1005A0006F5F20E0462D882D0E948900672D6150E5
:1005B00020E0462D882D0E948900252D4C2D6D2D83
:1005C0008E2D0E9489004C2D4F5F252D6D2D8E2D77
:1005D0000E9489004C2D4150252D6D2D8E2D0E949D
:1005E0008900252D4C2D6D2D8E2D8F5F0E94890049
:1005F000252D4C2D6D2D8E2D81500E9489006D2D45
:100600006F5F252D4C2D8E2D0E9489006D2D615020
:10061000252D4C2D8E2D0E948900242D4F2D602FCD
:10062000812F0E9489004F2D4F5F242D602F812F35
:100630000E9489004F2D4150242D602F812F0E9450
:100640008900242D4F2D602F812F8F5F0E948900FC
:10065000242D4F2D602F812F81500E948900602F03
:100660006F5F242D4F2D812F0E948900602F6150D4
:10067000242D4F2D812F0E9489008FE799EAE3E016
:1006800081509040E040E1F700C000000E94261534
:1006900063E070E00E94AD14811104C03981310F14
:1006A000202F0DC0813019F42A81200F07C082301D
:1006B00021F44B814F0D980103C0202F312F4F2D76
:1006C00037FD03C034302CF407C0F1E0F98330E08B
:1006D00003C08FEF898333E027FD03C024302CF45F
:1006E00007C091E09A8320E003C0EFEFEA8323E0A4
:1006F00047FD03C044302CF407C0F1E0FB8340E029
:1007000003C08FEF8B8343E02F833E834D830E9492
:10071000261563E070E00E94AD142F813E814D816B
:10072000811104C08C818E0D9D2D0EC0813019F475
:10073000932D9D0D08C0823029F4522D5C0D9D2D06
:100740008E2D03C09D2D8E2D5C2D87FD03C0843022
:100750002CF407C0E1E0EC8380E003C0FFEFFC83F2
:1007600083E097FD03C094302CF407C03324339406
:1007700090E003C033243A9493E057FD03C0543013
:100780002CF407C02224239450E003C022242A948E
:1007900053E0580147013601C52ED92EE82EF42E1C
:1007A000890180912A018A3008F4A7CEF12C12C069
:1007B00020E0412F602F8F2D0E9489001F5F143091
:1007C000B9F70F5F043011F010E0F2CFF39424E09A
:1007D000F21611F000E0F8CF27960FB6F894DEBFBE
:1007E0000FBECDBFDF91CF911F910F91FF90EF9082
:1007F000DF90CF90BF90AF909F908F907F906F9041
:100800005F904F903F902F9008952F923F924F927C
:100810005F926F927F928F929F92AF92BF92CF9290
:10082000DF92EF92FF920F931F93CF93DF93CDB799
:10083000DEB7C856D1090FB6F894DEBF0FBECDBFE4
:1008400091E5892E912C8C0E9D1E20E1820E911C2B
:1008500021E3A22EB12CAC0EBD1E31E4C32ED12C4F
:10086000CC0EDD1E8E010F5A1F4F44E0E42EF12CFA
:100870000E942615B7010E94AD14F80181938F01E3
:100880000E942615B7010E94AD14F60181936F01F5
:100890000E942615B7010E94AD14F50181935F01F6
:1008A0000815190529F710922A013E01F1E46F0E8F
:1008B000711C84E0C82ED12CC3C0A496EEADFFAD50
:1008C000A4974191A496FFAFEEAFA497A696EEAD84
:1008D000FFADA6976191A696FFAFEEAFA69720E079
:1008E000A896EEADFFADA8978191A896FFAFEEAFA9
:1008F000A8970E948900F10191911F0193307CF02B
:100900002FE0F8014081F7016081892FA9969FAF00
:10091000A9970E948900A9969FADA99712C092300D
:1009200039F42AE0F8014081F701608182E011C0CA
:10093000913039F425E0F8014081F701608181E0D0
:1009400008C0191644F021E0F8014081F7016081E8
:1009500080E00E948900A2969FADA2979150A29636
:100960009FAFA2970F5F1F4FEFEFEE1AFE0A911194
:10097000A4CFAE014F5C5F4FDE01AF5BBF4FCE0136
:100980008F5A9F4F20E1FC013191CF01F501319346
:100990005F013D91F40131934F01FA013191AF01B3
:1009A000F20131932F01215071F7FFEF27EE83E021
:1009B000F15020408040E1F700C0000011E5E12E39
:1009C000F12CEC0EFD1E01E4A02EB12CAC0EBD1ED0
:1009D0008E010F5C1F4FF80190809A9490820E94C4
:1009E0002615292D332727FD3095B6010E94AD1419
:1009F000059728173907CCF420E0F5014081F7016D
:100A0000608180E00E9489000E942615B6010E9444
:100A1000AD14F70180830E942615B6010E94AD1423
:100A2000F501808323E0F80120830F5F1F4F8FEFD4
:100A3000A81AB80A9FEFE91AF90A0615170559F618
:100A400080912A018F3068F571E1872E912C8C0EF0
:100A50009D1EE1E2AE2EB12CAC0EBD1E442443948B
:100A6000512C4C0E5D1EA1E5EA2EF12CEC0EFD1E64
:100A70008E010F5B1F4FB1E32B2E312C2C0E3D1E30
:100A8000A8965FAE4EAEA897A696BFAEAEAEA6979E
:100A9000A4969FAE8EAEA49790E1A2969FAFA29728
:100AA0000CCFC859DF4F0FB6F894DEBF0FBECDBFD5
:100AB000DF91CF911F910F91FF90EF90DF90CF903A
:100AC000BF90AF909F908F907F906F905F904F906E
:100AD0003F902F9008952F923F924F925F926F9286
:100AE0007F928F929F92AF92BF92CF92DF92EF92BE
:100AF000FF920F931F93CF93DF93CDB7DEB7C6540A
:100B0000D1090FB6F894DEBF0FBECDBF8DEF89A31C
:100B10008EEF8AA38FEF8BA31CA2198219AA1A82C7
:100B20001AAA1B821BAA1C821CAA10922A0130E05E
:100B3000612C712C812C912C55245394A12CEFE025
:100B4000BE2E0C94B90F21E0521274C1332391F1DF
:100B50005AC0D7018C91632D681BF601808120E07B
:100B6000442DF22DF81B8F2F27963FAF27970E9419
:100B700089002396AEADBFAD23978C91632D681B82
:100B80002596EEADFFAD259780812B2D442DF22DBE
:100B9000F81B8F2F0E948900439427963FAD27971B
:100BA00024E04212D6CF0F5F1F4F0430110531F4FD
:100BB0000C94EC0F00E010E073E0272E412C302E57
:100BC000EE24E394F12CEC0EFD1EE00EF11E61E12B
:100BD000C62ED12CCC0EDD1EC00ED11E41E350E03E
:100BE0004C0F5D1F400F511F23965FAF4EAF2397F1
:100BF00081E290E08C0F9D1F800F911F25969FAF83
:100C00008EAF2597A6CF323091F15AC0D7018C9183
:100C1000442D481BF601808120E0622DF32DF81B46
:100C20008F2F27963FAF27970E9489002396AEAD5E
:100C3000BFAD23978C91442D481B2596EEADFFAD9B
:100C4000259780812B2D622DF32DF81B8F2F0E946D
:100C50008900239427963FAD279724E02212D6CF10
:100C60000F5F1F4F0430110531F40C94EC0F00E0BE
:100C700010E043E0342E212C402EEE24E394F12C9E
:100C8000EC0EFD1EE00EF11E21E1C22ED12CCC0E89
:100C9000DD1EC00ED11E41E350E04C0F5D1F400F22
:100CA000511F23965FAF4EAF239781E290E08C0FE8
:100CB0009D1F800F911F25969FAF8EAF2597A6CFC2
:100CC000333009F05AC0B4E1CB2ED12CCC0EDD1E4E
:100CD0007E0194E2E90EF11C00E010E083E0382E82
:100CE00035C02396AEADBFAD23974C91440DF601B0
:100CF000808120E0622DF32DF81B8F2F27963FAFC8
:100D000027970E9489002596AEADBFAD25974C91DF
:100D1000440DF70180812B2D622DF32DF81B8F2FB1
:100D20000E948900239427963FAD279724E0221242
:100D3000D8CF0F5F1F4F41E0C41AD10851E0E51A28
:100D4000F1080430110511F40C94D40F212C402E1D
:100D500081E090E08C0F9D1F800F911F23969FAF25
:100D60008EAF2397A1E3B0E0AC0FBD1FA00FB11F62
:100D70002596BFAFAEAF2597B4CF313009F05AC03A
:100D8000F4E1EF2EF12CEC0EFD1E6E01B4E2CB0E61
:100D9000D11C00E010E0A3E03A2E35C02396EEAD62
:100DA000FFAD23976081640DD7018C9120E0422D27
:100DB000B32DB81B8B2F27963FAF27970E94890032
:100DC0002596EEADFFAD25976081640DD6018C911F
:100DD0002B2D422DB32DB81B8B2F0E9489002394FD
:100DE00027963FAD2797E4E02E12D8CF0F5F1F4F15
:100DF000F1E0EF1AF10821E0C21AD1080430110520
:100E000011F40C94D00F212C402E41E050E04C0FF7
:100E10005D1F400F511F23965FAF4EAF239781E3B5
:100E200090E08C0F9D1F800F911F25969FAF8EAF76
:100E30002597B4CF91E0991256C1343009F04DC0D6
:100E4000E4E1EE2EF12CEC0EFD1E1E01A4E02A0EB4
:100E5000311C6E01B4E2CB0ED11C8E010C5C1F4F15
:100E600050E039C0F701808163E0681BD1018C91AB
:100E700020E0442D850F27963FAF279726965FAF3A
:100E800026970E948900F601808163E0681BD801E3
:100E90008C912B2D442D26965FAD2697850F0E94B1
:100EA0008900439427963FAD279726965FAD2697F6
:100EB000B4E04B12D7CF5F5FE1E0EE1AF108F1E04A
:100EC0002F1A310821E0C21AD108015011095430FB
:100ED00011F40C94F50F412CC5CF333009F04DC0FF
:100EE0000C94C30FD1014C91440DF701808163E054
:100EF000681B20E0892F27963FAF279726969FAF44
:100F000026970E9489002396AEADBFAD23974C91E2
:100F1000440DF601808163E0681B2B2D26969FAD62
:100F20002697892F0E94890026969FAD26979F5F5E
:100F300027963FAD27979430A9F60F5F1F4FF1E03A
:100F4000EF1AF10821E0C21AD1080430110509F4A2
:100F5000CAC090E0402E22242394312C2C0E3D1E3A
:100F6000200E311E41E350E04C0F5D1F400F511F1A
:100F700023965FAF4EAF2397B5CF323079F157C08C
:100F8000D7018C91442D481BF6018081632D681B8D
:100F900020E0822D27963FAF27970E948900239655
:100FA000AEADBFAD23978C91442D481B2596EEAD79
:100FB000FFAD25978081632D681B2B2D822D0E940C
:100FC0008900239427963FAD2797F4E02F12D8CFBE
:100FD0000F5F1F4F0430110529F4EAC700E010E04D
:100FE00063E0362E212C402EEE24E394F12CEC0EFF
:100FF000FD1EE00EF11E51E1C52ED12CCC0EDD1EE2
:10100000C00ED11E41E350E04C0F5D1F400F511F39
:1010100023965FAF4EAF239781E290E08C0F9D1F28
:10102000800F911F25969FAF8EAF2597A9CF3530A2
:1010300089F159C0D7018C91632D681BF60180811D
:1010400020E0422DF42DF81B8F2F27963FAF2797D6
:101050000E9489002396AEADBFAD23978C91632D7E
:10106000681B2596EEADFFAD259780812B2D422D77
:10107000F42DF81B8F2F0E948900239427963FADF3
:10108000279724E02212D6CF0F5F1F4F043011059F
:1010900029F48EC700E010E023E0322E212C402EF0
:1010A00081E1E82EF12CEC0EFD1EE00EF11ECC24A9
:1010B000C394D12CCC0EDD1EC00ED11E41E250E0F7
:1010C0004C0F5D1F400F511F23965FAF4EAF23970C
:1010D00081E390E08C0F9D1F800F911F25969FAF9D
:1010E0008EAF2597A7CF91E089125AC1343009F00D
:1010F00053C014E1E12EF12CEC0EFD1E6E01A4E2B2
:10110000CA0ED11C00E010E033C0F101808120E064
:10111000492FD7016C91840D27963FAF27972696CC
:101120009FAF26970E9489002396EEADFFAD2397CF
:1011300080812B2D26969FAD2697492FD6016C9145
:10114000840D0E94890026969FAD26979F5F279663
:101150003FAD27979430C9F60F5F1F4FB1E0EB1AF0
:10116000F108E1E0CE1AD1080430110509F441C7B5
:1011700090E0402E22242394312C2C0E3D1E200E74
:10118000311E41E350E04C0F5D1F400F511F23966D
:101190005FAF4EAF2397B9CF333009F053C0A4E10E
:1011A000EA2EF12CEC0EFD1E6E0154E2C50ED11C90
:1011B00000E010E033C0D1014C91440D20E0F70174
:1011C0006081892F27963FAF279726969FAF269756
:1011D0000E9489002396AEADBFAD23974C91440D7C
:1011E0002B2DF601608126969FAD2697892F0E94B0
:1011F000890026969FAD26979F5F27963FAD27973C
:101200009430C9F60F5F1F4FF1E0EF1AF10821E0AB
:10121000C21AD1080430110509F41FC290E0402E13
:1012200022242394312C2C0E3D1E200E311E41E32E
:1012300050E04C0F5D1F400F511F23965FAF4EAF24
:101240002397B9CF323081F153C0D7018C91442D0F
:10125000481B20E0F6016081892F27963FAF279732
:1012600026969FAF26970E948900D1018C91442D2C
:10127000481B2B2D2396EEADFFAD2397608126965C
:101280009FAD2697892F0E94890026969FAD2697AD
:101290009F5F27963FAD27979430B9F60F5F1F4F9A
:1012A0000430110519F488C600E010E090E0402EEB
:1012B000EE24E394F12CEC0EFD1EE00EF11E71E124
:1012C000C72ED12CCC0EDD1EC00ED11EE1E32E2E7A
:1012D000312C2C0E3D1E200E311E41E250E04C0FF1
:1012E0005D1F400F511F23965FAF4EAF2397ADCFC9
:1012F000353091F155C0D6018C9120E0492FF7018E
:101300006081F42DF81B8F2F27963FAF27972696E5
:101310009FAF26970E9489002396AEADBFAD23975D
:101320008C912B2D26969FAD2697492FF101608138
:10133000F42DF81B8F2F0E94890026969FAD2697CB
:101340009F5F27963FAD27979430A9F60F5F1F4FF9
:101350000430110519F430C600E010E090E0402E92
:1013600021E1E22EF12CEC0EFD1EE00EF11ECC244C
:10137000C394D12CCC0EDD1EC00ED11E51E2252E01
:10138000312C2C0E3D1E200E311E41E350E04C0F3F
:101390005D1F400F511F23965FAF4EAF2397ABCF1A
:1013A00051E075125AC1313009F053C094E1E92E71
:1013B000F12CEC0EFD1E6E0184E2C80ED11C00E083
:1013C00010E033C0D1016C91640D20E0F701408141
:1013D000892F27963FAF279726969FAF26970E9483
:1013E00089002396AEADBFAD23976C91640D2B2D74
:1013F000F601408126969FAD2697892F0E9489008D
:1014000026969FAD26979F5F27963FAD27979430EE
:10141000C9F60F5F1F4FF1E0EF1AF10821E0C21A81
:10142000D1080430110509F4E8C590E0402E2224CB
:101430002394312C2C0E3D1E200E311E41E350E032
:101440004C0F5D1F400F511F23965FAF4EAF239788
:10145000B9CF343009F053C014E1E12EF12CEC0E79
:10146000FD1E6E0154E2C50ED11C00E010E033C039
:10147000D1018C9120E0F7014081692F840D2796DE
:101480003FAF279726969FAF26970E948900239605
:10149000AEADBFAD23978C912B2DF60140812696E2
:1014A0009FAD2697692F840D0E94890026969FADD7
:1014B00026979F5F27963FAD27979430C9F60F5F19
:1014C0001F4FF1E0EF1AF10821E0C21AD1080430F1
:1014D000110509F496C590E0402E22242394312C66
:1014E0002C0E3D1E200E311E41E350E04C0F5D1FBF
:1014F000400F511F23965FAF4EAF2397B9CF3530C2
:1015000091F155C0D6018C9120E0F7014081692FFF
:10151000F42DF81B8F2F27963FAF279726969FAF66
:1015200026970E9489002396AEADBFAD23978C917C
:101530002B2DF101408126969FAD2697692FF42D22
:10154000F81B8F2F0E94890026969FAD26979F5FDC
:1015500027963FAD27979430A9F60F5F1F4F0430B1
:10156000110519F42DC500E010E090E0402EE1E1F6
:10157000EE2EF12CEC0EFD1EE00EF11ECC24C394D9
:10158000D12CCC0EDD1EC00ED11EA1E22A2E312C94
:101590002C0E3D1E200E311E41E350E04C0F5D1F0E
:1015A000400F511F23965FAF4EAF2397ABCF33232E
:1015B00081F153C0D6018C91642D681B20E0F701A6
:1015C0004081892F27963FAF279726969FAF269772
:1015D0000E9489002396AEADBFAD23978C91642DF8
:1015E000681B2B2DF101408126969FAD2697892FF0
:1015F0000E94890026969FAD26979F5F27963FAD54
:1016000027979430B9F60F5F1F4F0430110519F476
:10161000D7C400E010E090E0402E51E1E52EF12C1F
:10162000EC0EFD1EE00EF11ECC24C394D12CCC0E8A
:10163000DD1EC00ED11E71E2272E312C2C0E3D1E58
:10164000200E311E41E350E04C0F5D1F400F511F33
:1016500023965FAF4EAF2397ADCF51E0A51258C18F
:10166000313009F053C044E1E42EF12CEC0EFD1EA4
:101670006E0184E2C80ED11C00E010E033C0D1013D
:101680006C91640D20E0492FF701808127963FAFD0
:10169000279726969FAF26970E9489002396AEAD86
:1016A000BFAD23976C91640D2B2D26969FAD269789
:1016B000492FF60180810E94890026969FAD2697CA
:1016C0009F5F27963FAD27979430C9F60F5F1F4F56
:1016D000F1E0EF1AF10821E0C21AD1080430110537
:1016E00009F472C490E0402E22242394312C2C0E55
:1016F0003D1E200E311E41E350E04C0F5D1F400F98
:10170000511F23965FAF4EAF2397B9CF333009F007
:1017100053C094E1E92EF12CEC0EFD1E6E0154E253
:10172000C50ED11C00E010E033C0D1014C91440D36
:1017300020E0692FF701808127963FAF27972696F3
:101740009FAF26970E9489002396AEADBFAD239729
:101750004C91440D2B2D26969FAD2697692FF601AF
:1017600080810E94890026969FAD26979F5F2796CD
:101770003FAD27979430C9F60F5F1F4FF1E0EF1A86
:10178000F10821E0C21AD1080430110509F41CC483
:1017900090E0402E22242394312C2C0E3D1E200E4E
:1017A000311E41E350E04C0F5D1F400F511F239647
:1017B0005FAF4EAF2397B9CF323081F153C0D7011D
:1017C0008C91442D481B20E0692FF60180812796DB
:1017D0003FAF279726969FAF26970E948900D10199
:1017E0008C91442D481B2B2D26969FAD2697692F53
:1017F0002396EEADFFAD239780810E948900269647
:101800009FAD26979F5F27963FAD27979430B9F6F7
:101810000F5F1F4F0430110519F4E5C100E010E01F
:1018200090E0402EEE24E394F12CEC0EFD1EE00E31
:10183000F11EA1E1CA2ED12CCC0EDD1EC00ED11E90
:10184000B1E32B2E312C2C0E3D1E200E311E41E219
:1018500050E04C0F5D1F400F511F23965FAF4EAFFE
:101860002397ADCF332381F1AFC3D7018C91642D82
:10187000681B20E0492FF601808127963FAF27970C
:1018800026969FAF26970E948900D1018C91642DE6
:10189000681B2B2D26969FAD2697492F2396EEADDC
:1018A000FFAD239780810E94890026969FAD2697E1
:1018B0009F5F27963FAD27979430B9F60F5F1F4F74
:1018C0000430110519F484C300E010E090E0402ECC
:1018D000EE24E394F12CEC0EFD1EE00EF11E71E1FE
:1018E000C72ED12CCC0EDD1EC00ED11EE1E32E2E54
:1018F000312C2C0E3D1E200E311E41E250E04C0FCB
:101900005D1F400F511F23965FAF4EAF2397ADCFA2
:1019100051E0651268C1332309F432C355C0D701C1
:101920008C9143E0481BF6018081642D681B20E008
:10193000892F27963FAF279726969FAF26970E941D
:101940008900D1018C9143E0481B2396EEADFFAD99
:1019500023978081642D681B2B2D26969FAD26979B
:10196000892F0E94890026969FAD26979F5F279614
:101970003FAD2797943099F60F5F1F4F0430110544
:1019800009F431C190E0402E21E1E22EF12CEC0E61
:10199000FD1EE00EF11ECC24C394D12CCC0EDD1E16
:1019A000C00ED11E51E2252E312C2C0E3D1E200ED4
:1019B000311E41E350E04C0F5D1F400F511F239635
:1019C0005FAF4EAF2397ABCF353089F159C0D70108
:1019D0008C91432D481BF601808120E0622DF42D6F
:1019E000F81B8F2F27963FAF27970E9489002396D9
:1019F000AEADBFAD23978C91432D481B2596EEAD20
:101A0000FFAD259780812B2D622DF42DF81B8F2F94
:101A10000E948900239427963FAD279724E0221245
:101A2000D6CF0F5F1F4F0430110529F4DCC000E052
:101A300010E083E0382E212C402EA1E1EA2EF12C7B
:101A4000EC0EFD1EE00EF11ECC24C394D12CCC0E66
:101A5000DD1EC00ED11E41E250E04C0F5D1F400F55
:101A6000511F23965FAF4EAF239781E390E08C0F19
:101A70009D1F800F911F25969FAF8EAF2597A7CFF3
:101A8000343009F057C0E4E1EE2EF12CEC0EFD1ECF
:101A90006E0194E2C90ED11C00E010E0F3E03F2E8D
:101AA00032C0D7018C91432D481B2396EEADFFAD7C
:101AB0002397808120E0622D840D27963FAF2797E2
:101AC0000E948900D6018C91432D481B2596EEADCE
:101AD000FFAD259780812B2D622D840D0E948900FA
:101AE000239427963FAD2797F4E02F12DACF0F5FAC
:101AF0001F4F21E0E21AF10841E0C41AD108043076
:101B0000110509F470C0212C402E81E090E08C0F6B
:101B10009D1F800F911F23969FAF8EAF2397A1E348
:101B2000B0E0AC0FBD1FA00FB11F2596BFAFAEAF89
:101B30002597B7CF313009F056C064E1E62EF12C7D
:101B4000EC0EFD1E6E01B4E2CB0ED11C00E010E0E5
:101B500073E0372E31C0F7018081432D481B239657
:101B6000AEADBFAD23976C91640D20E0822D27961A
:101B70003FAF27970E948900F6018081432D481BC3
:101B80002596AEADBFAD25976C91640D2B2D822DA2
:101B90000E948900239427963FAD2797B4E02B122B
:101BA000DACF0F5F1F4FE1E0EE1AF108F1E0CF1A34
:101BB000D10804301105B9F0212C402E41E050E04D
:101BC0004C0F5D1F400F511F23965FAF4EAF239701
:101BD00081E390E08C0F9D1F800F911F25969FAF92
:101BE0008EAF2597B8CF9FEFADEEB2E09150A040F9
:101BF000B040E1F700C000008E010F5D1F4FCE0125
:101C00004196FE01F196BE016F5F7F4F7E0125E296
:101C1000E20EF11CAF016801D6012D916D01DC01CE
:101C20002D93CD01DA012D91AD01DB012D93BD0185
:101C3000CE14DF0489F78CA1833009F08EC1CE0168
:101C4000C59620812F5F2193E817F907D1F78CA95A
:101C5000843009F082C1BFEFE9EFF0E0B150E0401D
:101C6000F040E1F700C0000027963FAF27970E94A1
:101C700026156FE070E00E94AD14B82EB394B394B3
:101C80000E94261562E070E00E94AD1427963FADD9
:101C9000279721E0521235C031110BC0882319F06B
:101CA000813019F003C032E001C033E0882483940E
:101CB0003BC1313059F4882319F0813019F003C049
:101CC00035E001C032E0992493942EC1323059F4AA
:101CD000882319F0813019F003C030E001C031E0F1
:101CE0007724739421C1333009F01EC1882319F081
:101CF000813019F003C030E001C031E06624639404
:101D000013C141E0A41235C031110BC0882319F072
:101D1000813019F003C032E001C033E0882483949D
:101D200026C0313059F4882319F0813019F003C0EE
:101D300032E001C033E09924939419C0323059F451
:101D4000882319F0813019F003C030E001C031E080
:101D5000772473940CC0333051F4882319F0813008
:101D600019F003C030E001C031E066246394A12C77
:101D7000E4C051E0951233C0343051F4882319F097
:101D8000813019F003C032E001C033E0912CA1C0D2
:101D9000353051F4882319F0813019F003C030E058
:101DA00001C032E0912C35C0323059F4882319F04B
:101DB000813019F003C030E001C035E0772473941E
:101DC000B5C0333009F0B2C0882319F0813019F062
:101DD00003C030E001C035E066246394A7C091E001
:101DE000891235C0343051F4882319F0813019F04C
:101DF00003C033E001C032E0812C6BC0353061F4A8
:101E0000882319F0813019F003C032E001C033E0BB
:101E1000812CAA24A39491C0323059F4882319F05C
:101E2000813019F003C031E001C035E077247394AC
:101E30007FC0333009F07CC0882319F0813021F451
:101E400002C031E001C035E06624639471C0A1E0B6
:101E50006A1231C0343051F4882319F0813019F0FE
:101E600003C032E001C030E0612C33C0353051F4A2
:101E7000882319F0813019F003C030E001C032E04E
:101E8000612CC7CF31110AC0882319F0813019F0B5
:101E900003C032E001C035E0612C35C0313009F0BB
:101EA00049C0882319F0813021F402C032E001C01A
:101EB00035E0612C36C0B1E07B123FC0343061F4B4
:101EC000882319F0813019F003C033E001C030E0FD
:101ED000712C5524539431C0353051F4882319F0B6
:101EE000813021F402C030E001C033E0712C91CF89
:101EF00031110CC0882319F0813019F003C033E090
:101F000001C035E0712C8824839417C03130A1F4CE
:101F1000882319F0813021F402C033E001C035E09C
:101F2000712C9924939409C0512C07C0912C05C0A1
:101F3000812C03C0612C01C0712C198219AA1A824C
:101F40001AAA1B821BAA1C821CAA8CEF89A38DEFE4
:101F50008AA38EEF8BA38FEF8CA38CA1833049F0E3
:101F6000F80180818F5FD8018D938D01AE15BF057B
:101F7000B9F780912A01883210F40C94A30545C06A
:101F800000E010E0FFCC54E1E52EF12CEC0EFD1E3C
:101F90006E01B4E2CB0ED11C00E010E00C94A90756
:101FA000E1E09E12FDC99FC8F1E09F121AC0EBCF7D
:101FB00021E08212F5C946C941E074124ECB9FCA96
:101FC00051E0A512A5CCF8CB81E068120CCEFCCC78
:101FD00091E0691208CED4CFA1E09A1284C80C9483
:101FE000BD07B1E08B12DCC9DAC8E1E08E12D8C9B6
:101FF00080C8F1E07F1231CB2FCA21E0A21288CC39
:1020000032CB41E0A41284CCDFCFCA5BDF4F0FB6E6
:10201000F894DEBF0FBECDBFDF91CF911F910F911E
:10202000FF90EF90DF90CF90BF90AF909F908F90F8
:102030007F906F905F904F903F902F9008952F92D8
:102040003F924F925F926F927F928F929F92AF9248
:10205000BF92CF92DF92EF92FF920F931F93CF9395
:10206000DF93CDB7DEB7C157D1400FB6F894DEBFCE
:102070000FBECDBF8E01035D1E4FBE0165507F4F69
:10208000AE0147535F4F9E0129563F4FCE018B59FA
:102090009F4FDE01D396CC24C394D12CCC0EDD1EF1
:1020A000F12CF80111928F01FB011192BF01FA018D
:1020B0001192AF01F90111929F01FC011192CF0120
:1020C0001D92F60111926F01F394F5E1FF12E9CF31
:1020D00010922A0131E0CF59DE4F3883C156D140EA
:1020E000C05ADE4F3883C056D140C15ADE4F3883C4
:1020F000CF55D140B5E66B2E712C6C0E7D1E8FEF47
:10210000681A780A17E9812E912C8C0E9D1E9FEF7C
:10211000891A990AD8C10E94261563E070E00E94CE
:10212000AD14982F09EC10E00C0F1D1F0F5F1F4F0F
:10213000FCEFAF2EB12CAC0EBD1EAEE22A2E332426
:1021400033942C0E3D1EFE013296C859DE4FF983A2
:10215000E883C856D1402E01F4E34F0E511C7301A1
:102160006401C259DE4F99828882CE56D140C4594B
:10217000DE4F79826882CC56D140C659DE4F5982F3
:102180004882CA56D140CA59DE4F39822882C65683
:10219000D140CC59DE4FB982A882C456D140CE5925
:1021A000DE4F19830883C256D14031E0CE59DE4F4D
:1021B000E881F981C256D1404191CE59DE4FF98371
:1021C000E883C256D140CC59DE4FE881F981C4562C
:1021D000D1406191CC59DE4FF983E883C456D14098
:1021E00020E0CA59DE4FE881F981C656D14081917D
:1021F000CA59DE4FF983E883C656D140CF58DE4F27
:102200003883C157D140C059DE4F9883C057D14061
:102210000E948900C859DE4FE881F981C856D14033
:102220002191C859DE4FF983E883C856D140C65979
:10223000DE4FE881F981CA56D1404191C659DE4F3F
:10224000F983E883CA56D140C459DE4FE881F98149
:10225000CC56D1406191C459DE4FF983E883CC5606
:10226000D140C259DE4FE881F981CE56D1408191EB
:10227000C259DE4FF983E883CE56D1400E948900CF
:10228000CF58DE4F3881C157D1403F5FC059DE4F34
:102290009881C057D140353109F088CF81E0F601EF
:1022A00021916F01F10121931F01F70121917F011C
:1022B000F50121935F01F20121912F01F801219392
:1022C0008F018F5F853159F7FFEF29EF30E0F15033
:1022D00020403040E1F700C00000911111C0C95604
:1022E000DF4F8881C759D040C15ADE4F3881CF5562
:1022F000D140830FC956DF4F8883C759D04019C0DA
:10230000913069F4A6968FADA697C05ADE4F3881FA
:10231000C056D140830FA6968FAFA6970AC09230C1
:1023200041F48BA9CF59DE4F3881C156D140830F7C
:102330008BABC956DF4F8881C759D0408430ACF091
:1023400083E0C956DF4F8883C759D0400E942615C5
:1023500060E170E00E94AD1489830E9426153FEF72
:10236000C15ADE4F3883CF55D140C956DF4F8881DF
:10237000C759D04087FF14C0C956DF4F1882C759CC
:10238000D0400E94261560E170E00E94AD14898360
:102390000E94261531E0C15ADE4F3883CF55D14017
:1023A000A6968FADA69784307CF083E0A6968FAF7B
:1023B000A69719820E9426150E9426153FEFC05A43
:1023C000DE4F3883C056D140A6968FADA69787FFC3
:1023D0000EC0A6961FAEA69719820E9426150E94CF
:1023E000261531E0C05ADE4F3883C056D1408BA944
:1023F00084308CF083E08BAB0E94261560E170E0A6
:102400000E94AD1489830E9426153FEFCF59DE4FFD
:102410003883C156D1408BA987FF10C01BAA0E94E8
:10242000261560E170E00E94AD1489830E94261594
:1024300031E0CF59DE4F3883C156D140F7E9CF2E76
:10244000D12CCC0EDD1E84E1C80ED11C07E910E0B2
:102450000C0F1D1F0B5E1F4F65E670E06C0F7D1F9C
:102460006C5E7F4F45E650E04C0F5D1F4B5E5F4F4B
:1024700023E330E02C0F3D1F2C5E3F4F83E390E0C1
:102480008C0F9D1F4596DE0155967E01E6E1EE0E0E
:10249000F11CE4E15E2EF60142906F01F8014292D8
:1024A0008F01FB014290BF01FA014292AF01F90195
:1024B00042909F01FC014292CF014E90F70142925F
:1024C0007F015A9441F780912A018A3008F423CE83
:1024D000CF58DE4F0FB6F894DEBF0FBECDBFDF91F1
:1024E000CF911F910F91FF90EF90DF90CF90BF9011
:1024F000AF909F908F907F906F905F904F903F90A4
:102500002F9008952F923F924F925F926F927F92F9
:102510008F929F92AF92BF92CF92DF92EF92FF92F3
:102520000F931F93CF93DF93CDB7DEB72C970FB6E2
:10253000F894DEBF0FBECDBF198681E08D838A87F8
:102540008E8392E09B878F8393E09C87888710928D
:102550002A01B12C8E01075F1F4F88248A9426E040
:10256000C22ED12C33E0A32EB8C09C91933011F42D
:10257000808204C0911102C021E020838191890FE3
:102580008D93E017F10789F7598483E0581208C04A
:102590000E942615B6010E94AD149AE0B92EB80E1D
:1025A00066246394712C6C0E7D1E412CF3013190D6
:1025B0003F0120E040E0642D832D0E94890020E04F
:1025C000442D60E0832D0E9489002A2C241820E0ED
:1025D00043E0622D832D0E94890020E0422D63E0BC
:1025E000832D0E948900F70131907F012B2D40E05F
:1025F000642D832D0E9489002B2D442D60E0832DB6
:102600000E9489002B2D43E0622D832D0E948900BA
:102610002B2D422D63E0832D0E9489004394F4E02A
:102620004F12C4CFF2E06F2E712C6C0E7D1EAAE00B
:10263000EA2EF12CEC0EFD1E44244394F30131905C
:102640003F0120E041E0642D832D0E94890020E0BD
:10265000442D61E0832D0E9489002A2C241820E05B
:1026600042E0622D832D0E94890020E0422D62E02D
:10267000832D0E948900942C990C940CF7013190C1
:102680007F01292D41E0642D832D0E948900292D91
:10269000442D61E0832D0E948900292D42E0622DA6
:1026A000832D0E948900292D422D62E0832D0E94F6
:1026B00089004394F3E04F12C1CF59828A858A83FF
:1026C0008B858B838C858C832FEF81EE94E021505A
:1026D00080409040E1F700C0000080912A018A30DC
:1026E00028F4FE0135967801D8013FCF2C960FB61D
:1026F000F894DEBF0FBECDBFDF91CF911F910F9138
:10270000FF90EF90DF90CF90BF90AF909F908F9011
:102710007F906F905F904F903F902F900895AF9271
:10272000BF92CF92DF92EF92FF920F931F93CF93BE
:10273000DF931F92CDB7DEB710922A0156E0A52E87
:10274000B12C0CE010E0E1C00E942615B5010E94FA
:10275000AD1489830E942615B8010E94AD1444E08F
:10276000F42EF80E29812223F1F020C02F2D4C2DBC
:102770006D2D8E2D0E948900C39424E0C212F6CFE5
:10278000E394E21611F0C12CF1CF3FEF86E791E020
:10279000315080409040E1F700C00000D394E4E065
:1027A000DE1202C0B2C0D12CE12CEDCF2130F1F00D
:1027B00020C02F2D4C2D6E2D8D2D0E948900C3948D
:1027C000F4E0CF12F6CFE394EF1611F0C12CF1CF65
:1027D0002FEF36E781E0215030408040E1F700C024
:1027E0000000D39494E0D91202C08FC0D12CE12C08
:1027F000EDCF2230F1F020C02F2D4D2D6C2D8E2DE0
:102800000E948900C394E4E0CE12F6CFE394EE1662
:1028100011F0C12CF1CFFFEF26E731E0F15020405D
:102820003040E1F700C00000D39484E0D81202C029
:102830006CC0D12CE12CEDCF2330F1F020C02F2D36
:102840004D2D692F8E2D99830E948900D3949981F3
:10285000E4E0DE12F4CFE394EE1611F0D12CEFCFCA
:10286000FFEF26E731E0F15020403040E1F700C0B3
:102870000000915010F449C093E0E12CEFCF2430D8
:10288000F1F020C02F2D4D2D6E2D892F99830E94A0
:102890008900D394998184E0D812F4CFE394E816A8
:1028A00011F0D12CEFCFEFEFF6E721E0E150F0404F
:1028B0002040E1F700C00000915010F426C093E0E2
:1028C000E12CEFCF2530F1F020C02F2D492F6D2DB9
:1028D0008E2D99830E948900D394998134E0D3127C
:1028E000F4CFE394E31611F0D12CEFCF8FEFE6E7AE
:1028F000F1E08150E040F040E1F700C0000091506D
:1029000010F403C093E0E12CEFCF80912A018A30CC
:1029100008F41ACF0F90DF91CF911F910F91FF9084
:10292000EF90DF90CF90BF90AF900895F8940E9401
:1029300076000E9480000E9453000E9469007894F3
:102940000E94FF010E9405040E946B050E941F1057
:102950000E9482120E948F13F3CF97FB072E16F46A
:10296000009407D077FD09D00E94C11407FC05D060
:102970003EF4909581959F4F0895709561957F4F96
:102980000895AA1BBB1B51E107C0AA1FBB1FA617B6
:10299000B70710F0A61BB70B881F991F5A95A9F708
:1029A00080959095BC01CD0108958F929F92AF9232
:1029B000BF92CF92DF92EF92FF92CF93DF93EC0121
:1029C000688179818A819B816115710581059105F5
:1029D00021F464E279ED8BE597E02DE133EF41E0FE
:1029E00050E00E94361549015A019B01AC01A7EA4B
:1029F000B1E40E9452156B017C01ACEEB4EFA5016D
:102A000094010E946015C60ED71EE81EF91EF7FE3F
:102A100006C081E0C81AD108E10880E8F80AC88237
:102A2000D982EA82FB82E894D7F8EE24FF24C6011B
:102A3000DF91CF91FF90EF90DF90CF90BF90AF905C
:102A40009F908F9008950E94D514089580E091E0A2
:102A50000E94D5140895A0E0B0E080930001909307
:102A60000101A0930201B09303010895052E97FB85
:102A700016F4009407D057FD0DD00E94651507FC91
:102A800009D07EF490958095709561957F4F8F4F1A
:102A90009F4F089550954095309521953F4F4F4F4A
:102AA0005F4F08950E948715A59F900DB49F900DCC
:102AB000A49F800D911D11240895B7FF0C94521509
:102AC0000E945215821B930B0895A1E21A2EAA1B95
:102AD000BB1BFD010DC0AA1FBB1FEE1FFF1FA217CE
:102AE000B307E407F50720F0A21BB30BE40BF50BCB
:102AF000661F771F881F991F1A9469F76095709554
:102B0000809590959B01AC01BD01CF010895A29FD6
:102B1000B001B39FC001A39F01D0B29F700D811D72
:0A2B20001124911D0895F894FFCFD1
:062B2A00010000000200A2
:040000050080012A4C
:00000001FF
